:020000040800F2
:1000000038080020E50E00080B0F00080D0F00084F
:1000100000000000000000000000000000000000E0
:100020000000000000000000000000000F0F0008AA
:100030000000000000000000590100088D030008C6
:10004000150F000800000000150F0008150F00082C
:10005000150F0008150F0008150F0008150F0008F0
:1000600000000000150F0008150F0008150F00080C
:10007000150F0008150F0008150F000800000000FC
:10008000150F00080000000000000000150F000818
:10009000150F0008150F0008150F0008150F0008B0
:1000A000150F0008150F0008150F0008150F0008A0
:1000B000150F000800F002F800F03EF80CA030C860
:1000C000083824182D18A246671EAB4654465D46D4
:1000D000AC4201D100F030F87E460F3E0FCCB64660
:1000E0000126334200D0FB1AA246AB4633431847E1
:1000F00090100000D0100000103A02D378C878C1E8
:10010000FAD8520701D330C830C101D504680C6059
:10011000704700000023002400250026103A01D378
:1001200078C1FBD8520700D330C100D50B607047AF
:100130001FB51FBD10B510BD00F0BEFF1146FFF783
:10014000F7FF00F025F800F0D6FF03B4FFF7F2FF49
:1001500003BC00F0DDFF000072B6EFF30980002859
:1001600005D01038F0C01038084909680860074801
:100170000268121D126802601068F0C880F30988D6
:10018000704604210843864662B67047000000208E
:1001900070B572B6FF26E136701E3149884200D92B
:1001A0000CE0701E2F4948610321081F00F020F861
:1001B00000202C4988610720086100BF2A4D06E015
:1001C00028688047002801D000BFFEE72D1D274882
:1001D0008542F5D3264C04E06168206800F07AF887
:1001E000083424488442F7D300F099FF002070BD02
:1001F00010B5002819DB204A03231B02D2188308FC
:100200009B00D2588307DC0EFF23A3409A438B0741
:100210001B0E8407E40EA3401A43174B0324240249
:100220001B198408A4001A5118E0144A03071B0F75
:10023000083B9B089B00D2588307DC0EFF23A3409A
:100240009A438B071B0E8407E40EA3401A430B4B03
:100250000407240F083CA408A4001A5110BD000094
:10026000FFFFFF0000E000E038080020040000006D
:100270003C0800200800000000E100E01CED00E068
:100280001CB50121880400F000FD0220009001212E
:100290006846017100214171012181710021C17104
:1002A00069460B4800F018F900201CBD00BF022170
:1002B000074800F08EF9FF20F53000F03FFF0221E3
:1002C000034800F088F9FF20F53000F037FFEEE733
:1002D0000004004810B54C4A12780A2A01DB00BF1E
:1002E000FEE7012212060A600A1F11461060012370
:1002F000DB430A1F11461360444B0A1F114613606B
:10030000434B0A1F11461360424B0A1F11461360EC
:100310005B100A1F1146136000230A1F1146136069
:100320003D4B0A1F114613603C4B0A1F11461360D8
:100330003B4B0A1F114613603A4B0A1F11461360CC
:10034000314A12780C235A43374BD218374B1A6074
:100350001A4612681160344A1B685A600022334BF7
:100360001B689A60284A1278002A09DD2F4A136810
:10037000254A1278521E0C2462432B4C12195360EA
:10038000214A1278521C204B1A7010BD2848006870
:10039000401C27490860704710B5002819DB254A22
:1003A00003231B02D21883089B00D2588307DC0E5C
:1003B000FF23A3409A438B071B0E8407E40EA34040
:1003C0001A431C4B032424021B198408A4001A514D
:1003D00018E0194A03071B0F083B9B089B00D258E3
:1003E0008307DC0EFF23A3409A438B071B0E840771
:1003F000E40EA3401A43104B0407240F083CA40842
:10040000A4001A5110BD00000800002012121212A0
:100410000303030302020202070707070606060694
:1004200005050505040404045C010020000000200B
:100430000400002000E100E01CED00E010B50446DF
:100440000920C006844209D10121480400F047FC7C
:1004500000210120400400F042FC3CE0744884424A
:1004600008D10121000200F03AFC0021200200F036
:1004700036FC30E06F48844208D10121000200F0D0
:100480002EFC0021200200F02AFC24E06A4884426D
:1004900009D10121080500F022FC002101200005FE
:1004A00000F01DFC17E06548844208D1012140029C
:1004B00000F015FC0021600200F011FC0BE0604828
:1004C000844208D10121880500F009FC00210120A7
:1004D000800500F004FC10BDF0B50A4600210023A1
:1004E000002400BF3DE001258D402B4615681D40CE
:1004F0002C469C4234D11579012D02D01579022D5C
:1005000016D185684F000326BE40B54385605579F6
:100510004E00B540866835438560858801268E404B
:10052000B5438580858896798E40B6B235438580FF
:1005300005684F000326BE40B543056015794E009F
:10054000B540066835430560C5684F000326BE40C8
:10055000B543C560D5794E00B540C6683543C56022
:10056000491C1029BFD3F0BD36490160002101713B
:100570000121417100218171C171704708B50122CB
:1005800012040092009A0A430092009AC261C1616B
:10059000009AC261C2690092C269009208BD024617
:1005A0000020138A0B40002B01D0012000E0002026
:1005B00070470146088A704702460020938A0B4024
:1005C000002B01D0012000E0002070470146888AFE
:1005D00070478161704701857047002A01D08161B1
:1005E00000E00185704781827047F0B50023002448
:1005F0004D07EE0E1546B5402B46CD10AE00054614
:100600002035AD594E07F70E0F26BE40B543CE102C
:10061000B60007462037BD51CD10AE003D46AD595E
:100620001D432C46CD10AD003E467451F0BD000078
:100630000004004800080048000C00480010004872
:1006400000140048FFFF0000F8480068012108433B
:10065000F649086008464068F5490840F349486093
:1006600008460068F3490840F049086008460068F9
:10067000012189048843ED490860084640683F210C
:1006800009048843E94948600846C06A0009000136
:10069000C8620846006BE8490840E4490863084618
:1006A000406B40084000486300208860704700218C
:1006B000DE4A917011468870704710B502460021DD
:1006C000002300205111002902D1D84C23680BE0EF
:1006D000012902D1D54C236A06E0022902D1D34C6C
:1006E000636A01E0D14C636BD106C90E01248C40D2
:1006F0001C40002C01D0012000E0002010BD38B5C6
:10070000002000900024002500BF1120FFF7D5FF36
:1007100005460098401C0090052109030098884276
:1007200001D0002DF1D01120FFF7C7FF002801D024
:10073000012400E00024204638BD01460020BB4AC9
:100740001068F82302469A431046CA001043B74A7D
:1007500010607047002806D0B4490968012211438F
:10076000B24A116005E0B149096849084900AF4A39
:100770001160704701460020AC4A506BF8230246D6
:100780009A431046CA001043A84A50637047002895
:1007900006D0A649496B01221143A44A516305E0E2
:1007A000A249496B49084900A04A51637047002893
:1007B00006D09E49496B042291439C4A516305E04F
:1007C0009A49496B04221143984A516370479749EB
:1007D000096A49084900954A11621146096A0422CA
:1007E0009143924A11621146096A014311627047AE
:1007F0008E49096A182291438C4A11621146096A8E
:10080000014311627047002806D08849496A0122D5
:100810001143864A516205E08449496A4908490002
:10082000824A51627047814A52687B23DB039A43B4
:100830007E4B5A601A46526803460B431A437B4B61
:100840005A607047002807D07849096801221206CB
:100850001143764A116006E07449096801221206C4
:100860009143724A11607047002807D06F49496B65
:100870000122120411436D4A516306E06B49496B32
:10088000012212049143694A5163704701460020D6
:10089000664AD06A0009000102460A431046634ACC
:1008A000D0627047002807D0604909680122D2044D
:1008B00011435E4A116006E05C4909680122D204D6
:1008C00091435A4A1160704702460020574B5868BE
:1008D0000002000A13060B431843544B586070473C
:1008E00001460020514A50688008800002460A43B1
:1008F00010464E4A506070474C4840680C210840F2
:10090000704701460020494A5068F02302469A4346
:10091000104602460A431046444A5060704701465A
:100920000020424A506807231B0202469A431046A1
:1009300002460A4310463D4A506070473B494968A9
:10094000012292039143394A51601146496882B2AB
:100950001143364A51601146096B92159143334A4F
:1009600011631146096B020C1143304A1163704741
:100970002E49096B402291432C4A11631146096BA1
:100980000143116370472949096B10229143274A9B
:1009900011631146096B0143116370470021010F78
:1009A000012906D1214A126B920892001F4B1A634B
:1009B00010E0022907D11D4A126B03231B049A433E
:1009C0001A4B1A6306E0194A126B03239B049A43DD
:1009D000164B1A63154A126B0243144B1A63704785
:1009E0001249096B80229143104A11631146096B29
:1009F000014311637047FEB5044600250026002020
:100A00000290019000900027084840680C2108409F
:100A10000546002D06D0042D12D0082D13D00C2D24
:100A200037D133E00548206036E000000010024076
:100A30000CB8FF08FFFFF6FEACFEF0FF00127A00D4
:100A4000CE48206028E0CE4840680F218904084045
:100A50000646CB4840680321C90308400290B00C09
:100A6000861C0298002803D1C648374647430BE04E
:100A7000C348C06A0007000F401C0190BF4801999D
:100A800000F06AFA70430746276005E0BE48206020
:100A900002E0BA48206000BF00BFB9484068F021BA
:100AA000084005462D09B948405D0090206800992E
:100AB000C8406060B2484068072109020840054606
:100AC0002D0AB248405D009061680098C140A16065
:100AD000AB48006BFF2101310840884202D0AC488E
:100AE000E0600DE0A6484068012189030840884283
:100AF00003D0A0684008E06002E0A0688008E060E1
:100B00009F48006B40210840402802D0A148206146
:100B100002E00120C00320619948006B10210840C9
:100B2000102802D09548606101E020686061944817
:100B3000006B8007800F002802D1A068A06119E037
:100B40008F48006B8007800F012802D12068A061C8
:100B500010E08B48006B8007800F022802D18003D1
:100B6000A06107E08648006B8007800F032801D151
:100B70008248A0618248006B0321090408400028D4
:100B800002D1A068E06120E07D48006B03210904E8
:100B9000084001210904884202D12068E06114E084
:100BA0007748006B03210904084001214904884269
:100BB00002D18010E06108E07148006B0321090454
:100BC0000840884201D16D48E0616D48006B032107
:100BD00089040840002802D1A068206220E068480B
:100BE000006B03218904084001218904884202D155
:100BF0002068206214E06248006B032189040840E9
:100C00000121C904884202D10011206208E05C4839
:100C1000006B032189040840884201D157482062B3
:100C20005748006B80210840802802D056486062F7
:100C300000E06762FEBD5249096A0143504A1162F1
:100C40007047002807D04E49096A0122D203114398
:100C50004B4A116206E04A49096A0122D2039143D4
:100C6000474A11627047002807D04549096A0122A6
:100C700012041143424A116206E04149096A012205
:100C8000120491433E4A11627047002905D03C4A44
:100C9000526902433A4B5A6104E0394A526982432D
:100CA000374B5A617047002905D0354A9269024393
:100CB000334B9A6104E0324A92698243304B9A6125
:100CC0007047002905D02E4AD26902432C4BDA61C5
:100CD00004E02B4AD2698243294BDA61704700292C
:100CE00005D0274A926A0243254B9A6204E0244ABF
:100CF000926A8243224B9A627047002905D0204AAB
:100D0000D26802431E4BDA6004E01D4AD268824377
:100D10001B4BDA607047002905D0194A126902435B
:100D2000174B1A6104E0164A12698243144B1A6188
:100D30007047002905D0124A527A0243104B5A726A
:100D400004E00F4A527A82430D4B5A7270470C48A6
:100D5000406A012109060843094948627047014673
:100D60000020074A92680A40002A01D0012000E0D2
:100D700000207047024988727047000000127A0014
:100D80000010024000093D00006CDC020900002058
:100D9000809FD500128000000CB5002001900090CB
:100DA0004C4800680121090408434A49086000BF13
:100DB0004848006801214904084000900198401CFF
:100DC00001900098002804D1052109030198884268
:100DD000EED140480068012149040840002802D0B3
:100DE0000120009001E0002000900098012839D1F6
:100DF000112039490860374840683649486008463C
:100E000040684860084640687F21C90388433149EB
:100E10004860084640681121090408432D4948608C
:100E2000084600680121090608432A49086000BFF6
:100E3000284800680121490608400028F8D02548C4
:100E400040688008800023494860084640680221C5
:100E500008432049486000BF1E4840680C210840F4
:100E60000828F9D10CBD10B51A48006801210843C3
:100E70001849086008464068184908401549486004
:100E8000084600681649084012490860084600688C
:100E90000121890488430F490860084640683F21C2
:100EA000090488430B4948600846C06A00090001EC
:100EB000C8620846006BFF21543188430549086326
:100EC0000846406B40084000486300208860FFF7F8
:100ED00063FF10BD00100240002002400CB8FF0864
:100EE000FFFFF6FE0F4880F308880F480168090EDF
:100EF0000E4A914205D10E480E4901600E480F4935
:100F000001600F4880470F480047FEE7FEE7FEE715
:100F1000FEE7FEE7FEE700000B480C490C4A0D4BCC
:100F20007047000038080020040000001F00000087
:100F30001810024001000000000001400000000005
:100F4000670E0008B50000083802002038080020AD
:100F50003804002038040020002203098B422CD3DF
:100F6000030A8B4211D300239C464EE003460B43F9
:100F70003CD4002243088B4231D303098B421CD35B
:100F8000030A8B4201D394463FE0C3098B4201D34D
:100F9000CB01C01A524183098B4201D38B01C01A85
:100FA000524143098B4201D34B01C01A52410309FC
:100FB0008B4201D30B01C01A5241C3088B4201D3AB
:100FC000CB00C01A524183088B4201D38B00C01A58
:100FD000524143088B4201D34B00C01A5241411A7F
:100FE00000D201465241104670475DE0CA0F00D062
:100FF0004942031000D34042534000229C4603095B
:101000008B422DD3030A8B4212D3FC22890112BAE0
:10101000030A8B420CD3890192118B4208D38901B8
:1010200092118B4204D389013AD0921100E08909D0
:10103000C3098B4201D3CB01C01A524183098B42B1
:1010400001D38B01C01A524143098B4201D34B019A
:10105000C01A524103098B4201D30B01C01A5241FD
:10106000C3088B4201D3CB00C01A524183088B4284
:1010700001D38B00C01A5241D9D243088B4201D30D
:101080004B00C01A5241411A00D2014663465241F8
:101090005B10104601D34042002B00D549427047F7
:1010A00063465B1000D3404201B50020C046C046F5
:1010B00002BD704770477047754600F025F8AE4690
:1010C000050069465346C008C000854618B020B5E3
:1010D000FFF722FF60BC00274908B6460026C0C5BE
:1010E000C0C5C0C5C0C5C0C5C0C5C0C5C0C5403DE0
:1010F00049008D46704710B50446C046C04620469C
:10110000FFF723F810BD000000487047D40100200D
:1011100001491820ABBEFEE726000200704710B55B
:10112000FF210120C043FFF737F9002080F3098831
:1011300000BF00F01BF862B610BD000010B50446F9
:1011400008480068001908490968886001E000F053
:101150000DF8054800688068024909688842F6D899
:1011600010BD00000400002000000020034840687B
:1011700001210907084301494860704700ED00E07C
:10118000C0110008000000201C000000F80000084A
:10119000DC1100083808002004000000F8000008F6
:1011A000E01100083C08002008000000F8000008DA
:1011B000DC1100081C0000201C08000014010008BD
:1011C0000000000000000000000000000001020319
:1011D0000401020304060708090000008102000858
:0811E000AD02000858010020D7
:04000005080000B53A
:00000001FF
